{
  "contractName": "MRMP",
  "abi": [
    {
      "constant": true,
      "inputs": [
        {
          "name": "interfaceId",
          "type": "bytes4"
        }
      ],
      "name": "supportsInterface",
      "outputs": [
        {
          "name": "",
          "type": "bool"
        }
      ],
      "payable": false,
      "stateMutability": "view",
      "type": "function"
    },
    {
      "constant": true,
      "inputs": [],
      "name": "name",
      "outputs": [
        {
          "name": "",
          "type": "string"
        }
      ],
      "payable": false,
      "stateMutability": "view",
      "type": "function"
    },
    {
      "constant": true,
      "inputs": [
        {
          "name": "tokenId",
          "type": "uint256"
        }
      ],
      "name": "getApproved",
      "outputs": [
        {
          "name": "",
          "type": "address"
        }
      ],
      "payable": false,
      "stateMutability": "view",
      "type": "function"
    },
    {
      "constant": false,
      "inputs": [
        {
          "name": "to",
          "type": "address"
        },
        {
          "name": "tokenId",
          "type": "uint256"
        }
      ],
      "name": "approve",
      "outputs": [],
      "payable": false,
      "stateMutability": "nonpayable",
      "type": "function"
    },
    {
      "constant": true,
      "inputs": [],
      "name": "totalSupply",
      "outputs": [
        {
          "name": "",
          "type": "uint256"
        }
      ],
      "payable": false,
      "stateMutability": "view",
      "type": "function"
    },
    {
      "constant": false,
      "inputs": [
        {
          "name": "from",
          "type": "address"
        },
        {
          "name": "to",
          "type": "address"
        },
        {
          "name": "tokenId",
          "type": "uint256"
        }
      ],
      "name": "transferFrom",
      "outputs": [],
      "payable": false,
      "stateMutability": "nonpayable",
      "type": "function"
    },
    {
      "constant": true,
      "inputs": [
        {
          "name": "owner",
          "type": "address"
        },
        {
          "name": "index",
          "type": "uint256"
        }
      ],
      "name": "tokenOfOwnerByIndex",
      "outputs": [
        {
          "name": "",
          "type": "uint256"
        }
      ],
      "payable": false,
      "stateMutability": "view",
      "type": "function"
    },
    {
      "constant": false,
      "inputs": [
        {
          "name": "to",
          "type": "address"
        },
        {
          "name": "tokenId",
          "type": "uint256"
        }
      ],
      "name": "mint",
      "outputs": [
        {
          "name": "",
          "type": "bool"
        }
      ],
      "payable": false,
      "stateMutability": "nonpayable",
      "type": "function"
    },
    {
      "constant": false,
      "inputs": [
        {
          "name": "from",
          "type": "address"
        },
        {
          "name": "to",
          "type": "address"
        },
        {
          "name": "tokenId",
          "type": "uint256"
        }
      ],
      "name": "safeTransferFrom",
      "outputs": [],
      "payable": false,
      "stateMutability": "nonpayable",
      "type": "function"
    },
    {
      "constant": true,
      "inputs": [
        {
          "name": "index",
          "type": "uint256"
        }
      ],
      "name": "tokenByIndex",
      "outputs": [
        {
          "name": "",
          "type": "uint256"
        }
      ],
      "payable": false,
      "stateMutability": "view",
      "type": "function"
    },
    {
      "constant": true,
      "inputs": [
        {
          "name": "tokenId",
          "type": "uint256"
        }
      ],
      "name": "ownerOf",
      "outputs": [
        {
          "name": "",
          "type": "address"
        }
      ],
      "payable": false,
      "stateMutability": "view",
      "type": "function"
    },
    {
      "constant": false,
      "inputs": [
        {
          "name": "_rmpId",
          "type": "uint256"
        },
        {
          "name": "_contAddress",
          "type": "address"
        },
        {
          "name": "_trustee",
          "type": "address"
        },
        {
          "name": "_title",
          "type": "string"
        },
        {
          "name": "_artist",
          "type": "string"
        },
        {
          "name": "_album",
          "type": "string"
        },
        {
          "name": "_rMonth",
          "type": "uint256"
        },
        {
          "name": "_rDay",
          "type": "uint256"
        },
        {
          "name": "_rYear",
          "type": "uint256"
        },
        {
          "name": "_genre",
          "type": "uint8"
        },
        {
          "name": "_image",
          "type": "string"
        }
      ],
      "name": "mintRMP721",
      "outputs": [],
      "payable": false,
      "stateMutability": "nonpayable",
      "type": "function"
    },
    {
      "constant": true,
      "inputs": [
        {
          "name": "owner",
          "type": "address"
        }
      ],
      "name": "balanceOf",
      "outputs": [
        {
          "name": "",
          "type": "uint256"
        }
      ],
      "payable": false,
      "stateMutability": "view",
      "type": "function"
    },
    {
      "constant": true,
      "inputs": [],
      "name": "symbol",
      "outputs": [
        {
          "name": "",
          "type": "string"
        }
      ],
      "payable": false,
      "stateMutability": "view",
      "type": "function"
    },
    {
      "constant": false,
      "inputs": [
        {
          "name": "account",
          "type": "address"
        }
      ],
      "name": "addMinter",
      "outputs": [],
      "payable": false,
      "stateMutability": "nonpayable",
      "type": "function"
    },
    {
      "constant": false,
      "inputs": [],
      "name": "renounceMinter",
      "outputs": [],
      "payable": false,
      "stateMutability": "nonpayable",
      "type": "function"
    },
    {
      "constant": true,
      "inputs": [
        {
          "name": "_rmpId",
          "type": "uint256"
        }
      ],
      "name": "getMdata",
      "outputs": [
        {
          "name": "_contAddress",
          "type": "address"
        },
        {
          "name": "_trustee",
          "type": "address"
        },
        {
          "name": "_title",
          "type": "string"
        },
        {
          "name": "_artist",
          "type": "string"
        },
        {
          "name": "_album",
          "type": "string"
        },
        {
          "name": "_rMonth",
          "type": "uint256"
        },
        {
          "name": "_rDay",
          "type": "uint256"
        },
        {
          "name": "_rYear",
          "type": "uint256"
        },
        {
          "name": "_genre",
          "type": "uint8"
        },
        {
          "name": "_image",
          "type": "string"
        }
      ],
      "payable": false,
      "stateMutability": "view",
      "type": "function"
    },
    {
      "constant": false,
      "inputs": [
        {
          "name": "to",
          "type": "address"
        },
        {
          "name": "approved",
          "type": "bool"
        }
      ],
      "name": "setApprovalForAll",
      "outputs": [],
      "payable": false,
      "stateMutability": "nonpayable",
      "type": "function"
    },
    {
      "constant": true,
      "inputs": [
        {
          "name": "account",
          "type": "address"
        }
      ],
      "name": "isMinter",
      "outputs": [
        {
          "name": "",
          "type": "bool"
        }
      ],
      "payable": false,
      "stateMutability": "view",
      "type": "function"
    },
    {
      "constant": false,
      "inputs": [
        {
          "name": "from",
          "type": "address"
        },
        {
          "name": "to",
          "type": "address"
        },
        {
          "name": "tokenId",
          "type": "uint256"
        },
        {
          "name": "_data",
          "type": "bytes"
        }
      ],
      "name": "safeTransferFrom",
      "outputs": [],
      "payable": false,
      "stateMutability": "nonpayable",
      "type": "function"
    },
    {
      "constant": true,
      "inputs": [
        {
          "name": "tokenId",
          "type": "uint256"
        }
      ],
      "name": "tokenURI",
      "outputs": [
        {
          "name": "",
          "type": "string"
        }
      ],
      "payable": false,
      "stateMutability": "view",
      "type": "function"
    },
    {
      "constant": true,
      "inputs": [
        {
          "name": "",
          "type": "uint256"
        }
      ],
      "name": "_mData",
      "outputs": [
        {
          "name": "contAddress",
          "type": "address"
        },
        {
          "name": "trustee",
          "type": "address"
        },
        {
          "name": "title",
          "type": "string"
        },
        {
          "name": "artist",
          "type": "string"
        },
        {
          "name": "album",
          "type": "string"
        },
        {
          "name": "rMonth",
          "type": "uint256"
        },
        {
          "name": "rDay",
          "type": "uint256"
        },
        {
          "name": "rYear",
          "type": "uint256"
        },
        {
          "name": "genre",
          "type": "uint8"
        },
        {
          "name": "image",
          "type": "string"
        }
      ],
      "payable": false,
      "stateMutability": "view",
      "type": "function"
    },
    {
      "constant": true,
      "inputs": [
        {
          "name": "owner",
          "type": "address"
        },
        {
          "name": "operator",
          "type": "address"
        }
      ],
      "name": "isApprovedForAll",
      "outputs": [
        {
          "name": "",
          "type": "bool"
        }
      ],
      "payable": false,
      "stateMutability": "view",
      "type": "function"
    },
    {
      "inputs": [
        {
          "name": "_rmpContAddress",
          "type": "address"
        }
      ],
      "payable": false,
      "stateMutability": "nonpayable",
      "type": "constructor"
    },
    {
      "anonymous": false,
      "inputs": [
        {
          "indexed": false,
          "name": "tokenId",
          "type": "uint256"
        }
      ],
      "name": "newToken",
      "type": "event"
    },
    {
      "anonymous": false,
      "inputs": [
        {
          "indexed": true,
          "name": "account",
          "type": "address"
        }
      ],
      "name": "MinterAdded",
      "type": "event"
    },
    {
      "anonymous": false,
      "inputs": [
        {
          "indexed": true,
          "name": "account",
          "type": "address"
        }
      ],
      "name": "MinterRemoved",
      "type": "event"
    },
    {
      "anonymous": false,
      "inputs": [
        {
          "indexed": true,
          "name": "from",
          "type": "address"
        },
        {
          "indexed": true,
          "name": "to",
          "type": "address"
        },
        {
          "indexed": true,
          "name": "tokenId",
          "type": "uint256"
        }
      ],
      "name": "Transfer",
      "type": "event"
    },
    {
      "anonymous": false,
      "inputs": [
        {
          "indexed": true,
          "name": "owner",
          "type": "address"
        },
        {
          "indexed": true,
          "name": "approved",
          "type": "address"
        },
        {
          "indexed": true,
          "name": "tokenId",
          "type": "uint256"
        }
      ],
      "name": "Approval",
      "type": "event"
    },
    {
      "anonymous": false,
      "inputs": [
        {
          "indexed": true,
          "name": "owner",
          "type": "address"
        },
        {
          "indexed": true,
          "name": "operator",
          "type": "address"
        },
        {
          "indexed": false,
          "name": "approved",
          "type": "bool"
        }
      ],
      "name": "ApprovalForAll",
      "type": "event"
    },
    {
      "constant": true,
      "inputs": [],
      "name": "generateId",
      "outputs": [
        {
          "name": "",
          "type": "uint256"
        }
      ],
      "payable": false,
      "stateMutability": "view",
      "type": "function"
    },
    {
      "constant": false,
      "inputs": [
        {
          "name": "_rmpId",
          "type": "uint256"
        },
        {
          "name": "_trustee",
          "type": "address"
        },
        {
          "name": "_title",
          "type": "string"
        },
        {
          "name": "_artist",
          "type": "string"
        },
        {
          "name": "_album",
          "type": "string"
        },
        {
          "name": "_rMonth",
          "type": "uint256"
        },
        {
          "name": "_rDay",
          "type": "uint256"
        },
        {
          "name": "_rYear",
          "type": "uint256"
        },
        {
          "name": "_genre",
          "type": "uint8"
        },
        {
          "name": "_image",
          "type": "string"
        }
      ],
      "name": "addSong",
      "outputs": [],
      "payable": false,
      "stateMutability": "nonpayable",
      "type": "function"
    },
    {
      "constant": false,
      "inputs": [
        {
          "name": "_rmpId",
          "type": "uint256"
        },
        {
          "name": "_name",
          "type": "string"
        },
        {
          "name": "_title",
          "type": "string"
        },
        {
          "name": "_percentage",
          "type": "uint256"
        },
        {
          "name": "_addr",
          "type": "address"
        }
      ],
      "name": "addStakeholder",
      "outputs": [],
      "payable": false,
      "stateMutability": "nonpayable",
      "type": "function"
    },
    {
      "constant": true,
      "inputs": [
        {
          "name": "genre",
          "type": "uint8"
        },
        {
          "name": "index",
          "type": "uint256"
        }
      ],
      "name": "getArtists",
      "outputs": [
        {
          "name": "",
          "type": "string"
        }
      ],
      "payable": false,
      "stateMutability": "view",
      "type": "function"
    },
    {
      "constant": true,
      "inputs": [
        {
          "name": "_rmpId",
          "type": "uint256"
        }
      ],
      "name": "getContractAddress",
      "outputs": [
        {
          "name": "",
          "type": "address"
        }
      ],
      "payable": false,
      "stateMutability": "view",
      "type": "function"
    }
  ],
  "bytecode": "0x60806040523480156200001157600080fd5b5060405160208062004ccf833981018060405281019080805190602001909291905050506040805190810160405280600681526020017f524d5037323100000000000000000000000000000000000000000000000000008152506040805190810160405280600381526020017f524d5000000000000000000000000000000000000000000000000000000000008152508181620000e06301ffc9a77c010000000000000000000000000000000000000000000000000000000002620002b9640100000000026401000000009004565b6200011d6380ac58cd7c010000000000000000000000000000000000000000000000000000000002620002b9640100000000026401000000009004565b6200015a63780e9d637c010000000000000000000000000000000000000000000000000000000002620002b9640100000000026401000000009004565b81600990805190602001906200017292919062000539565b5080600a90805190602001906200018b92919062000539565b50620001c9635b5e139f7c010000000000000000000000000000000000000000000000000000000002620002b9640100000000026401000000009004565b50505050620001e73362000377640100000000026401000000009004565b33600d60006101000a81548173ffffffffffffffffffffffffffffffffffffffff021916908373ffffffffffffffffffffffffffffffffffffffff1602179055506000600e8190555033601060006101000a81548173ffffffffffffffffffffffffffffffffffffffff021916908373ffffffffffffffffffffffffffffffffffffffff16021790555080601160006101000a81548173ffffffffffffffffffffffffffffffffffffffff021916908373ffffffffffffffffffffffffffffffffffffffff16021790555050620005e8565b63ffffffff7c010000000000000000000000000000000000000000000000000000000002817bffffffffffffffffffffffffffffffffffffffffffffffffffffffff1916141515156200030b57600080fd5b6001600080837bffffffffffffffffffffffffffffffffffffffffffffffffffffffff19167bffffffffffffffffffffffffffffffffffffffffffffffffffffffff1916815260200190815260200160002060006101000a81548160ff02191690831515021790555050565b6200039b81600c620003e16401000000000262003a02179091906401000000009004565b8073ffffffffffffffffffffffffffffffffffffffff167f6ae172837ea30b801fbfcdd4108aa1d5bf8ff775444fd70256b44e6bf3dfc3f660405160405180910390a250565b600073ffffffffffffffffffffffffffffffffffffffff168173ffffffffffffffffffffffffffffffffffffffff16141515156200041e57600080fd5b620004398282620004a4640100000000026401000000009004565b1515156200044657600080fd5b60018260000160008373ffffffffffffffffffffffffffffffffffffffff1673ffffffffffffffffffffffffffffffffffffffff16815260200190815260200160002060006101000a81548160ff0219169083151502179055505050565b60008073ffffffffffffffffffffffffffffffffffffffff168273ffffffffffffffffffffffffffffffffffffffff1614151515620004e257600080fd5b8260000160008373ffffffffffffffffffffffffffffffffffffffff1673ffffffffffffffffffffffffffffffffffffffff16815260200190815260200160002060009054906101000a900460ff16905092915050565b828054600181600116156101000203166002900490600052602060002090601f016020900481019282601f106200057c57805160ff1916838001178555620005ad565b82800160010185558215620005ad579182015b82811115620005ac5782518255916020019190600101906200058f565b5b509050620005bc9190620005c0565b5090565b620005e591905b80821115620005e1576000816000905550600101620005c7565b5090565b90565b6146d780620005f86000396000f30060806040526004361061016a576000357c0100000000000000000000000000000000000000000000000000000000900463ffffffff16806301ffc9a71461016f57806306fdde03146101d3578063081812fc14610263578063095ea7b3146102d057806318160ddd1461031d57806323b872dd146103485780632f745c59146103b557806340c10f191461041657806342842e0e1461047b5780634f6ccce7146104e85780636352211e1461052957806366215de9146105965780636f8dcb3d1461074657806370a082311461077157806395d89b41146107c857806396cd20c514610858578063983b2d561461093b578063986502751461097e578063a2244e9e14610995578063a22cb46514610c0f578063a62a767814610c5e578063aa271e1a14610dee578063aefa7d9814610e49578063b88d4fde14610eb6578063c87b56dd14610f69578063cb35b8241461100f578063e985e9c514611289578063f125fe1314611304575b600080fd5b34801561017b57600080fd5b506101b960048036038101908080357bffffffffffffffffffffffffffffffffffffffffffffffffffffffff191690602001909291905050506113b7565b604051808215151515815260200191505060405180910390f35b3480156101df57600080fd5b506101e861141e565b6040518080602001828103825283818151815260200191508051906020019080838360005b8381101561022857808201518184015260208101905061020d565b50505050905090810190601f1680156102555780820380516001836020036101000a031916815260200191505b509250505060405180910390f35b34801561026f57600080fd5b5061028e600480360381019080803590602001909291905050506114c0565b604051808273ffffffffffffffffffffffffffffffffffffffff1673ffffffffffffffffffffffffffffffffffffffff16815260200191505060405180910390f35b3480156102dc57600080fd5b5061031b600480360381019080803573ffffffffffffffffffffffffffffffffffffffff16906020019092919080359060200190929190505050611511565b005b34801561032957600080fd5b50610332611656565b6040518082815260200191505060405180910390f35b34801561035457600080fd5b506103b3600480360381019080803573ffffffffffffffffffffffffffffffffffffffff169060200190929190803573ffffffffffffffffffffffffffffffffffffffff16906020019092919080359060200190929190505050611663565b005b3480156103c157600080fd5b50610400600480360381019080803573ffffffffffffffffffffffffffffffffffffffff16906020019092919080359060200190929190505050611732565b6040518082815260200191505060405180910390f35b34801561042257600080fd5b50610461600480360381019080803573ffffffffffffffffffffffffffffffffffffffff169060200190929190803590602001909291905050506117a9565b604051808215151515815260200191505060405180910390f35b34801561048757600080fd5b506104e6600480360381019080803573ffffffffffffffffffffffffffffffffffffffff169060200190929190803573ffffffffffffffffffffffffffffffffffffffff169060200190929190803590602001909291905050506117d3565b005b3480156104f457600080fd5b50610513600480360381019080803590602001909291905050506117f4565b6040518082815260200191505060405180910390f35b34801561053557600080fd5b506105546004803603810190808035906020019092919050505061182c565b604051808273ffffffffffffffffffffffffffffffffffffffff1673ffffffffffffffffffffffffffffffffffffffff16815260200191505060405180910390f35b3480156105a257600080fd5b5061074460048036038101908080359060200190929190803573ffffffffffffffffffffffffffffffffffffffff169060200190929190803573ffffffffffffffffffffffffffffffffffffffff169060200190929190803590602001908201803590602001908080601f0160208091040260200160405190810160405280939291908181526020018383808284378201915050505050509192919290803590602001908201803590602001908080601f0160208091040260200160405190810160405280939291908181526020018383808284378201915050505050509192919290803590602001908201803590602001908080601f0160208091040260200160405190810160405280939291908181526020018383808284378201915050505050509192919290803590602001909291908035906020019092919080359060200190929190803560ff169060200190929190803590602001908201803590602001908080601f01602080910402602001604051908101604052809392919081815260200183838082843782019150505050505091929192905050506118aa565b005b34801561075257600080fd5b5061075b611b45565b6040518082815260200191505060405180910390f35b34801561077d57600080fd5b506107b2600480360381019080803573ffffffffffffffffffffffffffffffffffffffff169060200190929190505050611bd1565b6040518082815260200191505060405180910390f35b3480156107d457600080fd5b506107dd611c55565b6040518080602001828103825283818151815260200191508051906020019080838360005b8381101561081d578082015181840152602081019050610802565b50505050905090810190601f16801561084a5780820380516001836020036101000a031916815260200191505b509250505060405180910390f35b34801561086457600080fd5b5061093960048036038101908080359060200190929190803590602001908201803590602001908080601f0160208091040260200160405190810160405280939291908181526020018383808284378201915050505050509192919290803590602001908201803590602001908080601f016020809104026020016040519081016040528093929190818152602001838380828437820191505050505050919291929080359060200190929190803573ffffffffffffffffffffffffffffffffffffffff169060200190929190505050611cf7565b005b34801561094757600080fd5b5061097c600480360381019080803573ffffffffffffffffffffffffffffffffffffffff169060200190929190505050611f28565b005b34801561098a57600080fd5b50610993611f48565b005b3480156109a157600080fd5b506109c060048036038101908080359060200190929190505050611f53565b604051808b73ffffffffffffffffffffffffffffffffffffffff1673ffffffffffffffffffffffffffffffffffffffff1681526020018a73ffffffffffffffffffffffffffffffffffffffff1673ffffffffffffffffffffffffffffffffffffffff16815260200180602001806020018060200189815260200188815260200187815260200186600c811115610a5257fe5b60ff1681526020018060200185810385528d818151815260200191508051906020019080838360005b83811015610a96578082015181840152602081019050610a7b565b50505050905090810190601f168015610ac35780820380516001836020036101000a031916815260200191505b5085810384528c818151815260200191508051906020019080838360005b83811015610afc578082015181840152602081019050610ae1565b50505050905090810190601f168015610b295780820380516001836020036101000a031916815260200191505b5085810383528b818151815260200191508051906020019080838360005b83811015610b62578082015181840152602081019050610b47565b50505050905090810190601f168015610b8f5780820380516001836020036101000a031916815260200191505b50858103825286818151815260200191508051906020019080838360005b83811015610bc8578082015181840152602081019050610bad565b50505050905090810190601f168015610bf55780820380516001836020036101000a031916815260200191505b509e50505050505050505050505050505060405180910390f35b348015610c1b57600080fd5b50610c5c600480360381019080803573ffffffffffffffffffffffffffffffffffffffff169060200190929190803515159060200190929190505050612362565b005b348015610c6a57600080fd5b50610dec60048036038101908080359060200190929190803573ffffffffffffffffffffffffffffffffffffffff169060200190929190803590602001908201803590602001908080601f0160208091040260200160405190810160405280939291908181526020018383808284378201915050505050509192919290803590602001908201803590602001908080601f0160208091040260200160405190810160405280939291908181526020018383808284378201915050505050509192919290803590602001908201803590602001908080601f0160208091040260200160405190810160405280939291908181526020018383808284378201915050505050509192919290803590602001909291908035906020019092919080359060200190929190803560ff169060200190929190803590602001908201803590602001908080601f016020809104026020016040519081016040528093929190818152602001838380828437820191505050505050919291929050505061249e565b005b348015610dfa57600080fd5b50610e2f600480360381019080803573ffffffffffffffffffffffffffffffffffffffff1690602001909291905050506128a7565b604051808215151515815260200191505060405180910390f35b348015610e5557600080fd5b50610e74600480360381019080803590602001909291905050506128c4565b604051808273ffffffffffffffffffffffffffffffffffffffff1673ffffffffffffffffffffffffffffffffffffffff16815260200191505060405180910390f35b348015610ec257600080fd5b50610f67600480360381019080803573ffffffffffffffffffffffffffffffffffffffff169060200190929190803573ffffffffffffffffffffffffffffffffffffffff16906020019092919080359060200190929190803590602001908201803590602001908080601f0160208091040260200160405190810160405280939291908181526020018383808284378201915050505050509192919290505050612901565b005b348015610f7557600080fd5b50610f9460048036038101908080359060200190929190505050612929565b6040518080602001828103825283818151815260200191508051906020019080838360005b83811015610fd4578082015181840152602081019050610fb9565b50505050905090810190601f1680156110015780820380516001836020036101000a031916815260200191505b509250505060405180910390f35b34801561101b57600080fd5b5061103a600480360381019080803590602001909291905050506129f2565b604051808b73ffffffffffffffffffffffffffffffffffffffff1673ffffffffffffffffffffffffffffffffffffffff1681526020018a73ffffffffffffffffffffffffffffffffffffffff1673ffffffffffffffffffffffffffffffffffffffff16815260200180602001806020018060200189815260200188815260200187815260200186600c8111156110cc57fe5b60ff1681526020018060200185810385528d818151815260200191508051906020019080838360005b838110156111105780820151818401526020810190506110f5565b50505050905090810190601f16801561113d5780820380516001836020036101000a031916815260200191505b5085810384528c818151815260200191508051906020019080838360005b8381101561117657808201518184015260208101905061115b565b50505050905090810190601f1680156111a35780820380516001836020036101000a031916815260200191505b5085810383528b818151815260200191508051906020019080838360005b838110156111dc5780820151818401526020810190506111c1565b50505050905090810190601f1680156112095780820380516001836020036101000a031916815260200191505b50858103825286818151815260200191508051906020019080838360005b83811015611242578082015181840152602081019050611227565b50505050905090810190601f16801561126f5780820380516001836020036101000a031916815260200191505b509e50505050505050505050505050505060405180910390f35b34801561129557600080fd5b506112ea600480360381019080803573ffffffffffffffffffffffffffffffffffffffff169060200190929190803573ffffffffffffffffffffffffffffffffffffffff169060200190929190505050612cf3565b604051808215151515815260200191505060405180910390f35b34801561131057600080fd5b5061133c600480360381019080803560ff16906020019092919080359060200190929190505050612d87565b6040518080602001828103825283818151815260200191508051906020019080838360005b8381101561137c578082015181840152602081019050611361565b50505050905090810190601f1680156113a95780820380516001836020036101000a031916815260200191505b509250505060405180910390f35b6000806000837bffffffffffffffffffffffffffffffffffffffffffffffffffffffff19167bffffffffffffffffffffffffffffffffffffffffffffffffffffffff1916815260200190815260200160002060009054906101000a900460ff169050919050565b606060098054600181600116156101000203166002900480601f0160208091040260200160405190810160405280929190818152602001828054600181600116156101000203166002900480156114b65780601f1061148b576101008083540402835291602001916114b6565b820191906000526020600020905b81548152906001019060200180831161149957829003601f168201915b5050505050905090565b60006114cb82612e54565b15156114d657600080fd5b6002600083815260200190815260200160002060009054906101000a900473ffffffffffffffffffffffffffffffffffffffff169050919050565b600061151c8261182c565b90508073ffffffffffffffffffffffffffffffffffffffff168373ffffffffffffffffffffffffffffffffffffffff161415151561155957600080fd5b8073ffffffffffffffffffffffffffffffffffffffff163373ffffffffffffffffffffffffffffffffffffffff16148061159957506115988133612cf3565b5b15156115a457600080fd5b826002600084815260200190815260200160002060006101000a81548173ffffffffffffffffffffffffffffffffffffffff021916908373ffffffffffffffffffffffffffffffffffffffff160217905550818373ffffffffffffffffffffffffffffffffffffffff168273ffffffffffffffffffffffffffffffffffffffff167f8c5be1e5ebec7d5bd14f71427d1e84f3dd0314c0f7b2291e5b200ac8c7c3b92560405160405180910390a4505050565b6000600780549050905090565b61166d3382612ec6565b151561167857600080fd5b600073ffffffffffffffffffffffffffffffffffffffff168273ffffffffffffffffffffffffffffffffffffffff16141515156116b457600080fd5b6116be8382612f5b565b6116c8838261305e565b6116d2828261321a565b808273ffffffffffffffffffffffffffffffffffffffff168473ffffffffffffffffffffffffffffffffffffffff167fddf252ad1be2c89b69c2b068fc378daa952ba7f163c4a11628f55a4df523b3ef60405160405180910390a4505050565b600061173d83611bd1565b8210151561174a57600080fd5b600560008473ffffffffffffffffffffffffffffffffffffffff1673ffffffffffffffffffffffffffffffffffffffff1681526020019081526020016000208281548110151561179657fe5b9060005260206000200154905092915050565b60006117b4336128a7565b15156117bf57600080fd5b6117c983836132f1565b6001905092915050565b6117ef8383836020604051908101604052806000815250612901565b505050565b60006117fe611656565b8210151561180b57600080fd5b60078281548110151561181a57fe5b90600052602060002001549050919050565b6000806001600084815260200190815260200160002060009054906101000a900473ffffffffffffffffffffffffffffffffffffffff169050600073ffffffffffffffffffffffffffffffffffffffff168173ffffffffffffffffffffffffffffffffffffffff16141515156118a157600080fd5b80915050919050565b600d60009054906101000a900473ffffffffffffffffffffffffffffffffffffffff1673ffffffffffffffffffffffffffffffffffffffff163373ffffffffffffffffffffffffffffffffffffffff1614151561190657600080fd5b611910898c6132f1565b610140604051908101604052808b73ffffffffffffffffffffffffffffffffffffffff1681526020018a73ffffffffffffffffffffffffffffffffffffffff16815260200189815260200188815260200187815260200186815260200185815260200184815260200183600c81111561198557fe5b815260200182815250600f60008d815260200190815260200160002060008201518160000160006101000a81548173ffffffffffffffffffffffffffffffffffffffff021916908373ffffffffffffffffffffffffffffffffffffffff16021790555060208201518160010160006101000a81548173ffffffffffffffffffffffffffffffffffffffff021916908373ffffffffffffffffffffffffffffffffffffffff1602179055506040820151816002019080519060200190611a4b929190613b95565b506060820151816003019080519060200190611a68929190613b95565b506080820151816004019080519060200190611a85929190613b95565b5060a0820151816005015560c0820151816006015560e082015181600701556101008201518160080160006101000a81548160ff0219169083600c811115611ac957fe5b0217905550610120820151816009019080519060200190611aeb929190613b95565b50905050600e600081548092919060010191905055507fbd7e50e6da88c59380be00f4b84865a0c36da63679f3280e06a4d47d53a645ff8b6040518082815260200191505060405180910390a15050505050505050505050565b600080601060009054906101000a900473ffffffffffffffffffffffffffffffffffffffff1673ffffffffffffffffffffffffffffffffffffffff163373ffffffffffffffffffffffffffffffffffffffff16141515611ba457600080fd5b600090505b6000811480611bbd5750611bbc81612e54565b5b15611bca57429050611ba9565b8091505090565b60008073ffffffffffffffffffffffffffffffffffffffff168273ffffffffffffffffffffffffffffffffffffffff1614151515611c0e57600080fd5b600360008373ffffffffffffffffffffffffffffffffffffffff1673ffffffffffffffffffffffffffffffffffffffff168152602001908152602001600020549050919050565b6060600a8054600181600116156101000203166002900480601f016020809104026020016040519081016040528092919081815260200182805460018160011615610100020316600290048015611ced5780601f10611cc257610100808354040283529160200191611ced565b820191906000526020600020905b815481529060010190602001808311611cd057829003601f168201915b5050505050905090565b6000601060009054906101000a900473ffffffffffffffffffffffffffffffffffffffff1673ffffffffffffffffffffffffffffffffffffffff163373ffffffffffffffffffffffffffffffffffffffff16141515611d5557600080fd5b6019600087815260200190815260200160002060009054906101000a900473ffffffffffffffffffffffffffffffffffffffff1690508073ffffffffffffffffffffffffffffffffffffffff1663feac9ee4868686866040518563ffffffff167c01000000000000000000000000000000000000000000000000000000000281526004018080602001806020018581526020018473ffffffffffffffffffffffffffffffffffffffff1673ffffffffffffffffffffffffffffffffffffffff168152602001838103835287818151815260200191508051906020019080838360005b83811015611e52578082015181840152602081019050611e37565b50505050905090810190601f168015611e7f5780820380516001836020036101000a031916815260200191505b50838103825286818151815260200191508051906020019080838360005b83811015611eb8578082015181840152602081019050611e9d565b50505050905090810190601f168015611ee55780820380516001836020036101000a031916815260200191505b509650505050505050600060405180830381600087803b158015611f0857600080fd5b505af1158015611f1c573d6000803e3d6000fd5b50505050505050505050565b611f31336128a7565b1515611f3c57600080fd5b611f4581613348565b50565b611f51336133a2565b565b60008060608060606000806000806060611f6b613c15565b600f60008d815260200190815260200160002061014060405190810160405290816000820160009054906101000a900473ffffffffffffffffffffffffffffffffffffffff1673ffffffffffffffffffffffffffffffffffffffff1673ffffffffffffffffffffffffffffffffffffffff1681526020016001820160009054906101000a900473ffffffffffffffffffffffffffffffffffffffff1673ffffffffffffffffffffffffffffffffffffffff1673ffffffffffffffffffffffffffffffffffffffff168152602001600282018054600181600116156101000203166002900480601f0160208091040260200160405190810160405280929190818152602001828054600181600116156101000203166002900480156120d05780601f106120a5576101008083540402835291602001916120d0565b820191906000526020600020905b8154815290600101906020018083116120b357829003601f168201915b50505050508152602001600382018054600181600116156101000203166002900480601f0160208091040260200160405190810160405280929190818152602001828054600181600116156101000203166002900480156121725780601f1061214757610100808354040283529160200191612172565b820191906000526020600020905b81548152906001019060200180831161215557829003601f168201915b50505050508152602001600482018054600181600116156101000203166002900480601f0160208091040260200160405190810160405280929190818152602001828054600181600116156101000203166002900480156122145780601f106121e957610100808354040283529160200191612214565b820191906000526020600020905b8154815290600101906020018083116121f757829003601f168201915b505050505081526020016005820154815260200160068201548152602001600782015481526020016008820160009054906101000a900460ff16600c81111561225957fe5b600c81111561226457fe5b8152602001600982018054600181600116156101000203166002900480601f0160208091040260200160405190810160405280929190818152602001828054600181600116156101000203166002900480156123015780601f106122d657610100808354040283529160200191612301565b820191906000526020600020905b8154815290600101906020018083116122e457829003601f168201915b505050505081525050905080600001519a50806020015199508060400151985080606001519750806080015196508060a0015195508060c0015194508060e00151935080610100015192508061012001519150509193959799509193959799565b3373ffffffffffffffffffffffffffffffffffffffff168273ffffffffffffffffffffffffffffffffffffffff161415151561239d57600080fd5b80600460003373ffffffffffffffffffffffffffffffffffffffff1673ffffffffffffffffffffffffffffffffffffffff16815260200190815260200160002060008473ffffffffffffffffffffffffffffffffffffffff1673ffffffffffffffffffffffffffffffffffffffff16815260200190815260200160002060006101000a81548160ff0219169083151502179055508173ffffffffffffffffffffffffffffffffffffffff163373ffffffffffffffffffffffffffffffffffffffff167f17307eab39ab6107e8899845ad3d59bd9653f200f220920489ca2b5937696c3183604051808215151515815260200191505060405180910390a35050565b6000806000601060009054906101000a900473ffffffffffffffffffffffffffffffffffffffff1673ffffffffffffffffffffffffffffffffffffffff163373ffffffffffffffffffffffffffffffffffffffff161415156124ff57600080fd5b612507613ca0565b604051809103906000f080158015612523573d6000803e3d6000fd5b5092508260196000601b54815260200190815260200160002060006101000a81548173ffffffffffffffffffffffffffffffffffffffff021916908373ffffffffffffffffffffffffffffffffffffffff160217905550601b6000815480929190600101919050555060009150600090505b6012805490508110156126a657896040518082805190602001908083835b6020831015156125d857805182526020820191506020810190506020830392506125b3565b6001836020036101000a03801982511681845116808217855250505050505090500191505060405180910390206000191660128281548110151561261857fe5b90600052602060002001604051808280546001816001161561010002031660029004801561267d5780601f1061265b57610100808354040283529182019161267d565b820191906000526020600020905b815481529060010190602001808311612669575b5050915050604051809103902060001916141561269957600191505b8080600101915050612595565b8115156126ed5760128a90806001815401808255809150509060018203906000526020600020016000909192909190915090805190602001906126ea929190613cb0565b50505b83601a60008f81526020019081526020016000209080519060200190612714929190613cb0565b508c60168c6040518082805190602001908083835b60208310151561274e5780518252602082019150602081019050602083039250612729565b6001836020036101000a0380198251168184511680821785525050505050509050019150509081526020016040518091039020819055508860178c6040518082805190602001908083835b6020831015156127be5780518252602082019150602081019050602083039250612799565b6001836020036101000a03801982511681845116808217855250505050505090500191505090815260200160405180910390209080519060200190612804929190613cb0565b508960188a6040518082805190602001908083835b60208310151561283e5780518252602082019150602081019050602083039250612819565b6001836020036101000a03801982511681845116808217855250505050505090500191505090815260200160405180910390209080519060200190612884929190613cb0565b506128988d848e8e8e8e8e8e8e8e8e6118aa565b50505050505050505050505050565b60006128bd82600c6133fc90919063ffffffff16565b9050919050565b60006019600083815260200190815260200160002060009054906101000a900473ffffffffffffffffffffffffffffffffffffffff169050919050565b61290c848484611663565b61291884848484613490565b151561292357600080fd5b50505050565b606061293482612e54565b151561293f57600080fd5b600b60008381526020019081526020016000208054600181600116156101000203166002900480601f0160208091040260200160405190810160405280929190818152602001828054600181600116156101000203166002900480156129e65780601f106129bb576101008083540402835291602001916129e6565b820191906000526020600020905b8154815290600101906020018083116129c957829003601f168201915b50505050509050919050565b600f6020528060005260406000206000915090508060000160009054906101000a900473ffffffffffffffffffffffffffffffffffffffff16908060010160009054906101000a900473ffffffffffffffffffffffffffffffffffffffff1690806002018054600181600116156101000203166002900480601f016020809104026020016040519081016040528092919081815260200182805460018160011615610100020316600290048015612aea5780601f10612abf57610100808354040283529160200191612aea565b820191906000526020600020905b815481529060010190602001808311612acd57829003601f168201915b505050505090806003018054600181600116156101000203166002900480601f016020809104026020016040519081016040528092919081815260200182805460018160011615610100020316600290048015612b885780601f10612b5d57610100808354040283529160200191612b88565b820191906000526020600020905b815481529060010190602001808311612b6b57829003601f168201915b505050505090806004018054600181600116156101000203166002900480601f016020809104026020016040519081016040528092919081815260200182805460018160011615610100020316600290048015612c265780601f10612bfb57610100808354040283529160200191612c26565b820191906000526020600020905b815481529060010190602001808311612c0957829003601f168201915b5050505050908060050154908060060154908060070154908060080160009054906101000a900460ff1690806009018054600181600116156101000203166002900480601f016020809104026020016040519081016040528092919081815260200182805460018160011615610100020316600290048015612ce95780601f10612cbe57610100808354040283529160200191612ce9565b820191906000526020600020905b815481529060010190602001808311612ccc57829003601f168201915b505050505090508a565b6000600460008473ffffffffffffffffffffffffffffffffffffffff1673ffffffffffffffffffffffffffffffffffffffff16815260200190815260200160002060008373ffffffffffffffffffffffffffffffffffffffff1673ffffffffffffffffffffffffffffffffffffffff16815260200190815260200160002060009054906101000a900460ff16905092915050565b6060601360008460ff1660ff16815260200190815260200160002060008381526020019081526020016000208054600181600116156101000203166002900480601f016020809104026020016040519081016040528092919081815260200182805460018160011615610100020316600290048015612e475780601f10612e1c57610100808354040283529160200191612e47565b820191906000526020600020905b815481529060010190602001808311612e2a57829003601f168201915b5050505050905092915050565b6000806001600084815260200190815260200160002060009054906101000a900473ffffffffffffffffffffffffffffffffffffffff169050600073ffffffffffffffffffffffffffffffffffffffff168173ffffffffffffffffffffffffffffffffffffffff161415915050919050565b600080612ed28361182c565b90508073ffffffffffffffffffffffffffffffffffffffff168473ffffffffffffffffffffffffffffffffffffffff161480612f4157508373ffffffffffffffffffffffffffffffffffffffff16612f29846114c0565b73ffffffffffffffffffffffffffffffffffffffff16145b80612f525750612f518185612cf3565b5b91505092915050565b8173ffffffffffffffffffffffffffffffffffffffff16612f7b8261182c565b73ffffffffffffffffffffffffffffffffffffffff16141515612f9d57600080fd5b600073ffffffffffffffffffffffffffffffffffffffff166002600083815260200190815260200160002060009054906101000a900473ffffffffffffffffffffffffffffffffffffffff1673ffffffffffffffffffffffffffffffffffffffff1614151561305a5760006002600083815260200190815260200160002060006101000a81548173ffffffffffffffffffffffffffffffffffffffff021916908373ffffffffffffffffffffffffffffffffffffffff1602179055505b5050565b600080600061306d85856136b2565b600660008581526020019081526020016000205492506130d96001600560008873ffffffffffffffffffffffffffffffffffffffff1673ffffffffffffffffffffffffffffffffffffffff168152602001908152602001600020805490506137e190919063ffffffff16565b9150600560008673ffffffffffffffffffffffffffffffffffffffff1673ffffffffffffffffffffffffffffffffffffffff1681526020019081526020016000208281548110151561312757fe5b9060005260206000200154905080600560008773ffffffffffffffffffffffffffffffffffffffff1673ffffffffffffffffffffffffffffffffffffffff1681526020019081526020016000208481548110151561318157fe5b9060005260206000200181905550600560008673ffffffffffffffffffffffffffffffffffffffff1673ffffffffffffffffffffffffffffffffffffffff1681526020019081526020016000208054809190600190036131e19190613d30565b50600060066000868152602001908152602001600020819055508260066000838152602001908152602001600020819055505050505050565b60006132268383613802565b600560008473ffffffffffffffffffffffffffffffffffffffff1673ffffffffffffffffffffffffffffffffffffffff168152602001908152602001600020805490509050600560008473ffffffffffffffffffffffffffffffffffffffff1673ffffffffffffffffffffffffffffffffffffffff168152602001908152602001600020829080600181540180825580915050906001820390600052602060002001600090919290919091505550806006600084815260200190815260200160002081905550505050565b6132fb828261395c565b600780549050600860008381526020019081526020016000208190555060078190806001815401808255809150509060018203906000526020600020016000909192909190915055505050565b61335c81600c613a0290919063ffffffff16565b8073ffffffffffffffffffffffffffffffffffffffff167f6ae172837ea30b801fbfcdd4108aa1d5bf8ff775444fd70256b44e6bf3dfc3f660405160405180910390a250565b6133b681600c613ab290919063ffffffff16565b8073ffffffffffffffffffffffffffffffffffffffff167fe94479a9f7e1952cc78f2d6baab678adc1b772d936c6583def489e524cb6669260405160405180910390a250565b60008073ffffffffffffffffffffffffffffffffffffffff168273ffffffffffffffffffffffffffffffffffffffff161415151561343957600080fd5b8260000160008373ffffffffffffffffffffffffffffffffffffffff1673ffffffffffffffffffffffffffffffffffffffff16815260200190815260200160002060009054906101000a900460ff16905092915050565b6000806134b28573ffffffffffffffffffffffffffffffffffffffff16613b61565b15156134c157600191506136a9565b8473ffffffffffffffffffffffffffffffffffffffff1663150b7a02338887876040518563ffffffff167c0100000000000000000000000000000000000000000000000000000000028152600401808573ffffffffffffffffffffffffffffffffffffffff1673ffffffffffffffffffffffffffffffffffffffff1681526020018473ffffffffffffffffffffffffffffffffffffffff1673ffffffffffffffffffffffffffffffffffffffff16815260200183815260200180602001828103825283818151815260200191508051906020019080838360005b838110156135b657808201518184015260208101905061359b565b50505050905090810190601f1680156135e35780820380516001836020036101000a031916815260200191505b5095505050505050602060405180830381600087803b15801561360557600080fd5b505af1158015613619573d6000803e3d6000fd5b505050506040513d602081101561362f57600080fd5b8101908080519060200190929190505050905063150b7a027c0100000000000000000000000000000000000000000000000000000000027bffffffffffffffffffffffffffffffffffffffffffffffffffffffff1916817bffffffffffffffffffffffffffffffffffffffffffffffffffffffff19161491505b50949350505050565b8173ffffffffffffffffffffffffffffffffffffffff166136d28261182c565b73ffffffffffffffffffffffffffffffffffffffff161415156136f457600080fd5b6137476001600360008573ffffffffffffffffffffffffffffffffffffffff1673ffffffffffffffffffffffffffffffffffffffff168152602001908152602001600020546137e190919063ffffffff16565b600360008473ffffffffffffffffffffffffffffffffffffffff1673ffffffffffffffffffffffffffffffffffffffff1681526020019081526020016000208190555060006001600083815260200190815260200160002060006101000a81548173ffffffffffffffffffffffffffffffffffffffff021916908373ffffffffffffffffffffffffffffffffffffffff1602179055505050565b6000808383111515156137f357600080fd5b82840390508091505092915050565b600073ffffffffffffffffffffffffffffffffffffffff166001600083815260200190815260200160002060009054906101000a900473ffffffffffffffffffffffffffffffffffffffff1673ffffffffffffffffffffffffffffffffffffffff1614151561387057600080fd5b816001600083815260200190815260200160002060006101000a81548173ffffffffffffffffffffffffffffffffffffffff021916908373ffffffffffffffffffffffffffffffffffffffff1602179055506139156001600360008573ffffffffffffffffffffffffffffffffffffffff1673ffffffffffffffffffffffffffffffffffffffff16815260200190815260200160002054613b7490919063ffffffff16565b600360008473ffffffffffffffffffffffffffffffffffffffff1673ffffffffffffffffffffffffffffffffffffffff168152602001908152602001600020819055505050565b600073ffffffffffffffffffffffffffffffffffffffff168273ffffffffffffffffffffffffffffffffffffffff161415151561399857600080fd5b6139a2828261321a565b808273ffffffffffffffffffffffffffffffffffffffff16600073ffffffffffffffffffffffffffffffffffffffff167fddf252ad1be2c89b69c2b068fc378daa952ba7f163c4a11628f55a4df523b3ef60405160405180910390a45050565b600073ffffffffffffffffffffffffffffffffffffffff168173ffffffffffffffffffffffffffffffffffffffff1614151515613a3e57600080fd5b613a4882826133fc565b151515613a5457600080fd5b60018260000160008373ffffffffffffffffffffffffffffffffffffffff1673ffffffffffffffffffffffffffffffffffffffff16815260200190815260200160002060006101000a81548160ff0219169083151502179055505050565b600073ffffffffffffffffffffffffffffffffffffffff168173ffffffffffffffffffffffffffffffffffffffff1614151515613aee57600080fd5b613af882826133fc565b1515613b0357600080fd5b60008260000160008373ffffffffffffffffffffffffffffffffffffffff1673ffffffffffffffffffffffffffffffffffffffff16815260200190815260200160002060006101000a81548160ff0219169083151502179055505050565b600080823b905060008111915050919050565b6000808284019050838110151515613b8b57600080fd5b8091505092915050565b828054600181600116156101000203166002900490600052602060002090601f016020900481019282601f10613bd657805160ff1916838001178555613c04565b82800160010185558215613c04579182015b82811115613c03578251825591602001919060010190613be8565b5b509050613c119190613d5c565b5090565b61014060405190810160405280600073ffffffffffffffffffffffffffffffffffffffff168152602001600073ffffffffffffffffffffffffffffffffffffffff1681526020016060815260200160608152602001606081526020016000815260200160008152602001600081526020016000600c811115613c9357fe5b8152602001606081525090565b60405161092a80613d8283390190565b828054600181600116156101000203166002900490600052602060002090601f016020900481019282601f10613cf157805160ff1916838001178555613d1f565b82800160010185558215613d1f579182015b82811115613d1e578251825591602001919060010190613d03565b5b509050613d2c9190613d5c565b5090565b815481835581811115613d5757818360005260206000209182019101613d569190613d5c565b5b505050565b613d7e91905b80821115613d7a576000816000905550600101613d62565b5090565b905600608060405234801561001057600080fd5b5061090a806100206000396000f300608060405260043610610062576000357c0100000000000000000000000000000000000000000000000000000000900463ffffffff1680635cbff4e5146100ab57806381e1091a14610118578063c985162914610143578063feac9ee41461028f575b60003490507f284e3e671efeae309596e07a9a625e828b817ad516b3fb4ff24f7aa7b46cc1ad60005482604051808381526020018281526020019250505060405180910390a150005b3480156100b757600080fd5b5061011660048036038101908080359060200190929190803573ffffffffffffffffffffffffffffffffffffffff169060200190929190803573ffffffffffffffffffffffffffffffffffffffff169060200190929190505050610368565b005b34801561012457600080fd5b5061012d610452565b6040518082815260200191505060405180910390f35b34801561014f57600080fd5b5061016e6004803603810190808035906020019092919050505061045c565b6040518080602001806020018581526020018473ffffffffffffffffffffffffffffffffffffffff1673ffffffffffffffffffffffffffffffffffffffff168152602001838103835287818151815260200191508051906020019080838360005b838110156101ea5780820151818401526020810190506101cf565b50505050905090810190601f1680156102175780820380516001836020036101000a031916815260200191505b50838103825286818151815260200191508051906020019080838360005b83811015610250578082015181840152602081019050610235565b50505050905090810190601f16801561027d5780820380516001836020036101000a031916815260200191505b50965050505050505060405180910390f35b34801561029b57600080fd5b50610366600480360381019080803590602001908201803590602001908080601f0160208091040260200160405190810160405280939291908181526020018383808284378201915050505050509192919290803590602001908201803590602001908080601f016020809104026020016040519081016040528093929190818152602001838380828437820191505050505050919291929080359060200190929190803573ffffffffffffffffffffffffffffffffffffffff169060200190929190505050610653565b005b600160009054906101000a900473ffffffffffffffffffffffffffffffffffffffff1673ffffffffffffffffffffffffffffffffffffffff163373ffffffffffffffffffffffffffffffffffffffff161415156103c457600080fd5b8260008190555081600160006101000a81548173ffffffffffffffffffffffffffffffffffffffff021916908373ffffffffffffffffffffffffffffffffffffffff16021790555080600260006101000a81548173ffffffffffffffffffffffffffffffffffffffff021916908373ffffffffffffffffffffffffffffffffffffffff160217905550505050565b6000600454905090565b60608060008061046a6107fa565b6003600087815260200190815260200160002060806040519081016040529081600082018054600181600116156101000203166002900480601f0160208091040260200160405190810160405280929190818152602001828054600181600116156101000203166002900480156105225780601f106104f757610100808354040283529160200191610522565b820191906000526020600020905b81548152906001019060200180831161050557829003601f168201915b50505050508152602001600182018054600181600116156101000203166002900480601f0160208091040260200160405190810160405280929190818152602001828054600181600116156101000203166002900480156105c45780601f10610599576101008083540402835291602001916105c4565b820191906000526020600020905b8154815290600101906020018083116105a757829003601f168201915b50505050508152602001600282015481526020016003820160009054906101000a900473ffffffffffffffffffffffffffffffffffffffff1673ffffffffffffffffffffffffffffffffffffffff1673ffffffffffffffffffffffffffffffffffffffff1681525050905080600001519450806020015193508060400151925080606001519150509193509193565b600160009054906101000a900473ffffffffffffffffffffffffffffffffffffffff1673ffffffffffffffffffffffffffffffffffffffff163373ffffffffffffffffffffffffffffffffffffffff1614806106fc5750600260009054906101000a900473ffffffffffffffffffffffffffffffffffffffff1673ffffffffffffffffffffffffffffffffffffffff163373ffffffffffffffffffffffffffffffffffffffff16145b151561070757600080fd5b6080604051908101604052808581526020018481526020018381526020018273ffffffffffffffffffffffffffffffffffffffff168152506003600060045481526020019081526020016000206000820151816000019080519060200190610770929190610839565b50602082015181600101908051906020019061078d929190610839565b506040820151816002015560608201518160030160006101000a81548173ffffffffffffffffffffffffffffffffffffffff021916908373ffffffffffffffffffffffffffffffffffffffff16021790555090505060046000815480929190600101919050555050505050565b608060405190810160405280606081526020016060815260200160008152602001600073ffffffffffffffffffffffffffffffffffffffff1681525090565b828054600181600116156101000203166002900490600052602060002090601f016020900481019282601f1061087a57805160ff19168380011785556108a8565b828001600101855582156108a8579182015b828111156108a757825182559160200191906001019061088c565b5b5090506108b591906108b9565b5090565b6108db91905b808211156108d75760008160009055506001016108bf565b5090565b905600a165627a7a72305820bd6272e4e745d276edb04825d65c48f26e79a8d121b38f73e5e93a35df40405c0029a165627a7a723058201766207916da66a316e32195f74ae2ff780ab97a0e2cabe13a6259d1f578383d0029",
  "source": "pragma solidity ^0.4.24;\n//pragma experimental ABIEncoderV2;\n\nimport './RMP721.sol';\n\n/**\n *\n * Music Royalty Management Platform\n * Uses RMP721 Non-Fungible Token (Based on ERC721 standard)\n *\n */\n\ncontract MRMP is RMP721 {\n\n    address rmpManager;\n    address rmpContAddress;\n\n//    mapping (uint8 => string[]) internal genreToArtists;\n//\n//    mapping (string => string[]) internal artistToAlbums;\n//\n//    mapping (string => string[]) internal albumToSongs;\n\n    string[] artist;\n\n    mapping (uint8 => mapping (uint256 => string)) internal genreToArtists;\n\n    mapping (string => mapping (uint256 => string)) internal artistToAlbums;\n\n    mapping (string => mapping (uint256 => string)) internal albumToSongs;\n\n\n    mapping (string => uint256) internal songToTokenId;\n\n    mapping (string => string) internal songToAlbum;\n\n    mapping (string => string) internal albumToArtist;\n\n\n    mapping (uint256 => address) internal rmpIdToContract;\n\n    mapping (uint256 => string) internal rmpIdToImage; // IPFS image link\n\n    uint256 numContracts;\n\n\n    constructor(address _rmpContAddress) public {\n        rmpManager = msg.sender;\n        rmpContAddress = _rmpContAddress;\n    }\n\n\n    //To add a song:\n    //Call generateId to obtain an ID\n    //Upload image to IPFS and obtain URI (Needs to be done in javascript????)\n    //Call addSong to generate contract and mint token\n    //Call addStakeholder as many times as needed to add all stakeholders to the official contract\n\n\n\n    function generateId() public view returns (uint256) {\n        require(msg.sender == rmpManager);\n\n        //function calls _exists from ERC721\n        uint256 rmpId = 0;\n        while (rmpId == 0 || _exists(rmpId)) {\n            rmpId = uint256(now);\n            //rmpId = uint256(keccak256(bytes((_rYear * _rMonth * _rDay)))); won't compile\n        }\n        return rmpId;\n    }\n\n\n\n    function addSong(\n        uint256 _rmpId,\n        address _trustee,\n        string _title,\n        string _artist,\n        string _album,\n        uint _rMonth,\n        uint _rDay,\n        uint _rYear,\n        Genre _genre,\n        string _image\n    )\n        public\n    {\n        require(msg.sender == rmpManager);\n\n        //verify parameters here\n        //i.e. require(_genre > 0 && _genre <= 12)\n\n        //create contract\n        address _contAddress = new RMPcontract();\n\n        // RMPcontract RMPcont = RMPcontract(_contAddress);\n\n        //RMPcont.initRMPcont(_rmpId, _trustee, rmpManager);\n\n        rmpIdToContract[numContracts] = _contAddress;\n\n        numContracts++;\n\n\n        //check to see if artist exists, if not then add it\n        bool exists = false;\n        for (uint256 i = 0; i < artist.length; i++) {\n           if (keccak256(bytes(artist[i])) == keccak256(bytes(_artist))) exists = true;\n            // is there a better way? Needs to be tested\n        }\n        if (!exists)\n        artist.push(_artist);\n\n\n        //add artist to genreToArtists;\n\n        //add album to artistToAlbums;\n\n        //add song to albumToSongs;\n\n\n        rmpIdToImage[_rmpId] = _image; // IPFS image link\n\n        songToTokenId[_title] = _rmpId;\n\n        songToAlbum[_title] = _album;\n\n        albumToArtist[_album] = _artist;\n\n        //mint token\n        mintRMP721(_rmpId, _contAddress, _trustee, _title, _artist, _album, _rMonth, _rDay, _rYear, _genre, _image);\n\n    }\n\n    function addStakeholder(\n        uint256 _rmpId,\n        string _name,\n        string _title,\n        uint _percentage,\n        address _addr\n    )\n    public\n    {\n        require(msg.sender == rmpManager); // what about trustee?\n\n        RMPcontract RMPcont = RMPcontract(rmpIdToContract[_rmpId]);\n\n        RMPcont.addStakeholderOfficial(_name, _title, _percentage, _addr);\n    }\n\n    function getArtists(uint8 genre, uint256 index) public view returns (string) {\n        return genreToArtists[genre][index];\n    }\n\n    function getContractAddress(uint256 _rmpId) public view returns (address) {\n        return rmpIdToContract[_rmpId];\n    }\n\n    //In order to return string[], had to use 'pragma experimental ABIEncoderV2;', warning: don't use on live deployments\n//    function getArtists(uint8 genre) public view returns (string[]) {\n//        return genreToArtists[genre];\n//    }\n\n    //Need more getters like one above, should test above function first\n\n}\n\n\n\n\n\n\ncontract RMPcontract {\n    uint256 rmpId;\n    address rmpManager;\n    address trustee;\n\n    struct stakeholder {\n        string name; //Stakeholder's name\n        string title; //Stakeholder's title i.e. songwriter, composer, musician, organization, other\n        uint percentage; //Integer 1 to 100 indicating percentage of royalties\n        address addr; //Stakeholder's Ethereum address\n    }\n\n    mapping (uint256 => stakeholder) private stHolder; //List of stakeholders, (0 to stHolderCount - 1)\n\n    uint256 stHolderCount;\n\n    event RoyaltyPayment(uint256 tokenId, uint amount);\n\n\n\n\n    constructor() public {\n    }\n\n    function initRMPcont(uint256 _rmpId, address _rmpManager, address _trustee) public {\n        require(msg.sender == rmpManager);\n        rmpId = _rmpId;\n        rmpManager = _rmpManager;\n        trustee = _trustee;\n    }\n\n    function addStakeholderOfficial(\n        string _name,\n        string _title,\n        uint _percentage,\n        address _addr\n    )\n    public\n    {\n        require(msg.sender == rmpManager || msg.sender == trustee);\n        stHolder[stHolderCount] = stakeholder(_name, _title, _percentage, _addr);\n        stHolderCount++;\n    }\n\n    function getStakeholder(uint index) public view returns(\n        string _name,\n        string _title,\n        uint _percentage,\n        address _addr\n    )\n    {\n        stakeholder memory stk = stHolder[index];\n\n        _name = stk.name;\n        _title = stk.title;\n        _percentage = stk.percentage;\n        _addr = stk.addr;\n    }\n\n    function getNumStakeholders() public view returns (uint) {\n        return stHolderCount;\n    }\n\n    function() public payable {\n        uint amountReceived = msg.value;\n\n\n        //Unfinished\n        //Need to distribute funds to stakeholders\n        //Can this be done without floating points?\n\n        emit RoyaltyPayment(rmpId, amountReceived);\n    }\n}\n\n\n\n\n/*\n\n    contract RMPcontract {\n\n        function initRMPcont(uint256 _rmpId, address _rmpManager, address _trustee) public;\n\n        function addStakeholderOfficial(\n        string _name,\n        string _title,\n        uint _percentage,\n        address _addr\n        )\n        public;\n\n        function getStakeholder(uint index) public view returns(\n        string _name,\n        string _title,\n        uint _percentage,\n        address _addr\n        );\n\n        function getNumStakeholders() public view returns (uint);\n\n        function() public payable;\n    }\n\n*/\n\n\n\n\n\n\n\n/*\ncontract RMPcontract {\n    uint256 rmpId;\n    address rmpManager;\n    address trustee;\n\n    struct stakeholder {\n        string name; //Stakeholder's name\n        string title; //Stakeholder's title i.e. songwriter, composer, musician, organization, other\n        uint percentage; //Integer 1 to 100 indicating percentage of royalties\n        address addr; //Stakeholder's Ethereum address\n    }\n\n    mapping (uint256 => stakeholder) private stHolder; //List of stakeholders, (0 to stHolderCount - 1)\n\n    uint256 stHolderCount;\n\n    event RoyaltyPayment(uint256 tokenId, uint amount);\n\n\n    constructor(uint256 _rmpId, address _rmpManager, address _trustee) public {\n        rmpId = _rmpId;\n        rmpManager = _rmpManager;\n        trustee = _trustee;\n    }\n\n    function addStakeholderOfficial(\n        string _name,\n        string _title,\n        uint _percentage,\n        address _addr\n    )\n    public\n    {\n        require(msg.sender == rmpManager || msg.sender == trustee);\n        stHolder[stHolderCount] = stakeholder(_name, _title, _percentage, _addr);\n        stHolderCount++;\n    }\n\n    function getStakeholder(uint index) public view returns(\n        string _name,\n        string _title,\n        uint _percentage,\n        address _addr\n    )\n    {\n        stakeholder memory stk = stHolder[index];\n\n        _name = stk.name;\n        _title = stk.title;\n        _percentage = stk.percentage;\n        _addr = stk.addr;\n    }\n\n    function getNumStakeholders() public view returns (uint) {\n        return stHolderCount;\n    }\n\n    function() public payable {\n        uint amountReceived = msg.value;\n\n\n        //Unfinished\n        //Need to distribute funds to stakeholders\n        //Can this be done without floating points?\n\n        emit RoyaltyPayment(rmpId, amountReceived);\n    }\n}\n*/\n\n\n\n",
  "sourcePath": "/Users/brad/Documents/CS480/project/mrmp/contracts/MRMP.sol",
  "compiler": {
    "name": "solc",
    "version": "0.4.24+commit.e67f0147.Emscripten.clang"
  },
  "schemaVersion": "2.0.1",
  "updatedAt": "2018-12-05T20:17:13.074Z"
}