{
  "contractName": "RMPcontract",
  "abi": [
    {
      "inputs": [],
      "payable": false,
      "stateMutability": "nonpayable",
      "type": "constructor"
    },
    {
      "payable": true,
      "stateMutability": "payable",
      "type": "fallback"
    },
    {
      "anonymous": false,
      "inputs": [
        {
          "indexed": false,
          "name": "tokenId",
          "type": "uint256"
        },
        {
          "indexed": false,
          "name": "amount",
          "type": "uint256"
        }
      ],
      "name": "RoyaltyPayment",
      "type": "event"
    },
    {
      "constant": false,
      "inputs": [
        {
          "name": "_rmpId",
          "type": "uint256"
        },
        {
          "name": "_rmpManager",
          "type": "address"
        },
        {
          "name": "_trustee",
          "type": "address"
        }
      ],
      "name": "initRMPcont",
      "outputs": [],
      "payable": false,
      "stateMutability": "nonpayable",
      "type": "function"
    },
    {
      "constant": false,
      "inputs": [
        {
          "name": "_name",
          "type": "string"
        },
        {
          "name": "_title",
          "type": "string"
        },
        {
          "name": "_percentage",
          "type": "uint256"
        },
        {
          "name": "_addr",
          "type": "address"
        }
      ],
      "name": "addStakeholderOfficial",
      "outputs": [],
      "payable": false,
      "stateMutability": "nonpayable",
      "type": "function"
    },
    {
      "constant": true,
      "inputs": [
        {
          "name": "index",
          "type": "uint256"
        }
      ],
      "name": "getStakeholder",
      "outputs": [
        {
          "name": "_name",
          "type": "string"
        },
        {
          "name": "_title",
          "type": "string"
        },
        {
          "name": "_percentage",
          "type": "uint256"
        },
        {
          "name": "_addr",
          "type": "address"
        }
      ],
      "payable": false,
      "stateMutability": "view",
      "type": "function"
    },
    {
      "constant": true,
      "inputs": [],
      "name": "getNumStakeholders",
      "outputs": [
        {
          "name": "",
          "type": "uint256"
        }
      ],
      "payable": false,
      "stateMutability": "view",
      "type": "function"
    }
  ],
  "bytecode": "0x608060405234801561001057600080fd5b5061090a806100206000396000f300608060405260043610610062576000357c0100000000000000000000000000000000000000000000000000000000900463ffffffff1680635cbff4e5146100ab57806381e1091a14610118578063c985162914610143578063feac9ee41461028f575b60003490507f284e3e671efeae309596e07a9a625e828b817ad516b3fb4ff24f7aa7b46cc1ad60005482604051808381526020018281526020019250505060405180910390a150005b3480156100b757600080fd5b5061011660048036038101908080359060200190929190803573ffffffffffffffffffffffffffffffffffffffff169060200190929190803573ffffffffffffffffffffffffffffffffffffffff169060200190929190505050610368565b005b34801561012457600080fd5b5061012d610452565b6040518082815260200191505060405180910390f35b34801561014f57600080fd5b5061016e6004803603810190808035906020019092919050505061045c565b6040518080602001806020018581526020018473ffffffffffffffffffffffffffffffffffffffff1673ffffffffffffffffffffffffffffffffffffffff168152602001838103835287818151815260200191508051906020019080838360005b838110156101ea5780820151818401526020810190506101cf565b50505050905090810190601f1680156102175780820380516001836020036101000a031916815260200191505b50838103825286818151815260200191508051906020019080838360005b83811015610250578082015181840152602081019050610235565b50505050905090810190601f16801561027d5780820380516001836020036101000a031916815260200191505b50965050505050505060405180910390f35b34801561029b57600080fd5b50610366600480360381019080803590602001908201803590602001908080601f0160208091040260200160405190810160405280939291908181526020018383808284378201915050505050509192919290803590602001908201803590602001908080601f016020809104026020016040519081016040528093929190818152602001838380828437820191505050505050919291929080359060200190929190803573ffffffffffffffffffffffffffffffffffffffff169060200190929190505050610653565b005b600160009054906101000a900473ffffffffffffffffffffffffffffffffffffffff1673ffffffffffffffffffffffffffffffffffffffff163373ffffffffffffffffffffffffffffffffffffffff161415156103c457600080fd5b8260008190555081600160006101000a81548173ffffffffffffffffffffffffffffffffffffffff021916908373ffffffffffffffffffffffffffffffffffffffff16021790555080600260006101000a81548173ffffffffffffffffffffffffffffffffffffffff021916908373ffffffffffffffffffffffffffffffffffffffff160217905550505050565b6000600454905090565b60608060008061046a6107fa565b6003600087815260200190815260200160002060806040519081016040529081600082018054600181600116156101000203166002900480601f0160208091040260200160405190810160405280929190818152602001828054600181600116156101000203166002900480156105225780601f106104f757610100808354040283529160200191610522565b820191906000526020600020905b81548152906001019060200180831161050557829003601f168201915b50505050508152602001600182018054600181600116156101000203166002900480601f0160208091040260200160405190810160405280929190818152602001828054600181600116156101000203166002900480156105c45780601f10610599576101008083540402835291602001916105c4565b820191906000526020600020905b8154815290600101906020018083116105a757829003601f168201915b50505050508152602001600282015481526020016003820160009054906101000a900473ffffffffffffffffffffffffffffffffffffffff1673ffffffffffffffffffffffffffffffffffffffff1673ffffffffffffffffffffffffffffffffffffffff1681525050905080600001519450806020015193508060400151925080606001519150509193509193565b600160009054906101000a900473ffffffffffffffffffffffffffffffffffffffff1673ffffffffffffffffffffffffffffffffffffffff163373ffffffffffffffffffffffffffffffffffffffff1614806106fc5750600260009054906101000a900473ffffffffffffffffffffffffffffffffffffffff1673ffffffffffffffffffffffffffffffffffffffff163373ffffffffffffffffffffffffffffffffffffffff16145b151561070757600080fd5b6080604051908101604052808581526020018481526020018381526020018273ffffffffffffffffffffffffffffffffffffffff168152506003600060045481526020019081526020016000206000820151816000019080519060200190610770929190610839565b50602082015181600101908051906020019061078d929190610839565b506040820151816002015560608201518160030160006101000a81548173ffffffffffffffffffffffffffffffffffffffff021916908373ffffffffffffffffffffffffffffffffffffffff16021790555090505060046000815480929190600101919050555050505050565b608060405190810160405280606081526020016060815260200160008152602001600073ffffffffffffffffffffffffffffffffffffffff1681525090565b828054600181600116156101000203166002900490600052602060002090601f016020900481019282601f1061087a57805160ff19168380011785556108a8565b828001600101855582156108a8579182015b828111156108a757825182559160200191906001019061088c565b5b5090506108b591906108b9565b5090565b6108db91905b808211156108d75760008160009055506001016108bf565b5090565b905600a165627a7a72305820bd6272e4e745d276edb04825d65c48f26e79a8d121b38f73e5e93a35df40405c0029",
  "source": "pragma solidity ^0.4.24;\n//pragma experimental ABIEncoderV2;\n\nimport './RMP721.sol';\n\n/**\n *\n * Music Royalty Management Platform\n * Uses RMP721 Non-Fungible Token (Based on ERC721 standard)\n *\n */\n\ncontract MRMP is RMP721 {\n\n    address rmpManager;\n    address rmpContAddress;\n\n//    mapping (uint8 => string[]) internal genreToArtists;\n//\n//    mapping (string => string[]) internal artistToAlbums;\n//\n//    mapping (string => string[]) internal albumToSongs;\n\n    string[] artist;\n\n    mapping (uint8 => mapping (uint256 => string)) internal genreToArtists;\n\n    mapping (string => mapping (uint256 => string)) internal artistToAlbums;\n\n    mapping (string => mapping (uint256 => string)) internal albumToSongs;\n\n\n    mapping (string => uint256) internal songToTokenId;\n\n    mapping (string => string) internal songToAlbum;\n\n    mapping (string => string) internal albumToArtist;\n\n\n    mapping (uint256 => address) internal rmpIdToContract;\n\n    mapping (uint256 => string) internal rmpIdToImage; // IPFS image link\n\n    uint256 numContracts;\n\n\n    constructor(address _rmpContAddress) public {\n        rmpManager = msg.sender;\n        rmpContAddress = _rmpContAddress;\n    }\n\n\n    //To add a song:\n    //Call generateId to obtain an ID\n    //Upload image to IPFS and obtain URI (Needs to be done in javascript????)\n    //Call addSong to generate contract and mint token\n    //Call addStakeholder as many times as needed to add all stakeholders to the official contract\n\n\n\n    function generateId() public view returns (uint256) {\n        require(msg.sender == rmpManager);\n\n        //function calls _exists from ERC721\n        uint256 rmpId = 0;\n        while (rmpId == 0 || _exists(rmpId)) {\n            rmpId = uint256(now);\n            //rmpId = uint256(keccak256(bytes((_rYear * _rMonth * _rDay)))); won't compile\n        }\n        return rmpId;\n    }\n\n\n\n    function addSong(\n        uint256 _rmpId,\n        address _trustee,\n        string _title,\n        string _artist,\n        string _album,\n        uint _rMonth,\n        uint _rDay,\n        uint _rYear,\n        Genre _genre,\n        string _image\n    )\n        public\n    {\n        require(msg.sender == rmpManager);\n\n        //verify parameters here\n        //i.e. require(_genre > 0 && _genre <= 12)\n\n        //create contract\n        address _contAddress = new RMPcontract();\n\n        // RMPcontract RMPcont = RMPcontract(_contAddress);\n\n        //RMPcont.initRMPcont(_rmpId, _trustee, rmpManager);\n\n        rmpIdToContract[numContracts] = _contAddress;\n\n        numContracts++;\n\n\n        //check to see if artist exists, if not then add it\n        bool exists = false;\n        for (uint256 i = 0; i < artist.length; i++) {\n           if (keccak256(bytes(artist[i])) == keccak256(bytes(_artist))) exists = true;\n            // is there a better way? Needs to be tested\n        }\n        if (!exists)\n        artist.push(_artist);\n\n\n        //add artist to genreToArtists;\n\n        //add album to artistToAlbums;\n\n        //add song to albumToSongs;\n\n\n        rmpIdToImage[_rmpId] = _image; // IPFS image link\n\n        songToTokenId[_title] = _rmpId;\n\n        songToAlbum[_title] = _album;\n\n        albumToArtist[_album] = _artist;\n\n        //mint token\n        mintRMP721(_rmpId, _contAddress, _trustee, _title, _artist, _album, _rMonth, _rDay, _rYear, _genre, _image);\n\n    }\n\n    function addStakeholder(\n        uint256 _rmpId,\n        string _name,\n        string _title,\n        uint _percentage,\n        address _addr\n    )\n    public\n    {\n        require(msg.sender == rmpManager); // what about trustee?\n\n        RMPcontract RMPcont = RMPcontract(rmpIdToContract[_rmpId]);\n\n        RMPcont.addStakeholderOfficial(_name, _title, _percentage, _addr);\n    }\n\n    function getArtists(uint8 genre, uint256 index) public view returns (string) {\n        return genreToArtists[genre][index];\n    }\n\n    function getContractAddress(uint256 _rmpId) public view returns (address) {\n        return rmpIdToContract[_rmpId];\n    }\n\n    //In order to return string[], had to use 'pragma experimental ABIEncoderV2;', warning: don't use on live deployments\n//    function getArtists(uint8 genre) public view returns (string[]) {\n//        return genreToArtists[genre];\n//    }\n\n    //Need more getters like one above, should test above function first\n\n}\n\n\n\n\n\n\ncontract RMPcontract {\n    uint256 rmpId;\n    address rmpManager;\n    address trustee;\n\n    struct stakeholder {\n        string name; //Stakeholder's name\n        string title; //Stakeholder's title i.e. songwriter, composer, musician, organization, other\n        uint percentage; //Integer 1 to 100 indicating percentage of royalties\n        address addr; //Stakeholder's Ethereum address\n    }\n\n    mapping (uint256 => stakeholder) private stHolder; //List of stakeholders, (0 to stHolderCount - 1)\n\n    uint256 stHolderCount;\n\n    event RoyaltyPayment(uint256 tokenId, uint amount);\n\n\n\n\n    constructor() public {\n    }\n\n    function initRMPcont(uint256 _rmpId, address _rmpManager, address _trustee) public {\n        require(msg.sender == rmpManager);\n        rmpId = _rmpId;\n        rmpManager = _rmpManager;\n        trustee = _trustee;\n    }\n\n    function addStakeholderOfficial(\n        string _name,\n        string _title,\n        uint _percentage,\n        address _addr\n    )\n    public\n    {\n        require(msg.sender == rmpManager || msg.sender == trustee);\n        stHolder[stHolderCount] = stakeholder(_name, _title, _percentage, _addr);\n        stHolderCount++;\n    }\n\n    function getStakeholder(uint index) public view returns(\n        string _name,\n        string _title,\n        uint _percentage,\n        address _addr\n    )\n    {\n        stakeholder memory stk = stHolder[index];\n\n        _name = stk.name;\n        _title = stk.title;\n        _percentage = stk.percentage;\n        _addr = stk.addr;\n    }\n\n    function getNumStakeholders() public view returns (uint) {\n        return stHolderCount;\n    }\n\n    function() public payable {\n        uint amountReceived = msg.value;\n\n\n        //Unfinished\n        //Need to distribute funds to stakeholders\n        //Can this be done without floating points?\n\n        emit RoyaltyPayment(rmpId, amountReceived);\n    }\n}\n\n\n\n\n/*\n\n    contract RMPcontract {\n\n        function initRMPcont(uint256 _rmpId, address _rmpManager, address _trustee) public;\n\n        function addStakeholderOfficial(\n        string _name,\n        string _title,\n        uint _percentage,\n        address _addr\n        )\n        public;\n\n        function getStakeholder(uint index) public view returns(\n        string _name,\n        string _title,\n        uint _percentage,\n        address _addr\n        );\n\n        function getNumStakeholders() public view returns (uint);\n\n        function() public payable;\n    }\n\n*/\n\n\n\n\n\n\n\n/*\ncontract RMPcontract {\n    uint256 rmpId;\n    address rmpManager;\n    address trustee;\n\n    struct stakeholder {\n        string name; //Stakeholder's name\n        string title; //Stakeholder's title i.e. songwriter, composer, musician, organization, other\n        uint percentage; //Integer 1 to 100 indicating percentage of royalties\n        address addr; //Stakeholder's Ethereum address\n    }\n\n    mapping (uint256 => stakeholder) private stHolder; //List of stakeholders, (0 to stHolderCount - 1)\n\n    uint256 stHolderCount;\n\n    event RoyaltyPayment(uint256 tokenId, uint amount);\n\n\n    constructor(uint256 _rmpId, address _rmpManager, address _trustee) public {\n        rmpId = _rmpId;\n        rmpManager = _rmpManager;\n        trustee = _trustee;\n    }\n\n    function addStakeholderOfficial(\n        string _name,\n        string _title,\n        uint _percentage,\n        address _addr\n    )\n    public\n    {\n        require(msg.sender == rmpManager || msg.sender == trustee);\n        stHolder[stHolderCount] = stakeholder(_name, _title, _percentage, _addr);\n        stHolderCount++;\n    }\n\n    function getStakeholder(uint index) public view returns(\n        string _name,\n        string _title,\n        uint _percentage,\n        address _addr\n    )\n    {\n        stakeholder memory stk = stHolder[index];\n\n        _name = stk.name;\n        _title = stk.title;\n        _percentage = stk.percentage;\n        _addr = stk.addr;\n    }\n\n    function getNumStakeholders() public view returns (uint) {\n        return stHolderCount;\n    }\n\n    function() public payable {\n        uint amountReceived = msg.value;\n\n\n        //Unfinished\n        //Need to distribute funds to stakeholders\n        //Can this be done without floating points?\n\n        emit RoyaltyPayment(rmpId, amountReceived);\n    }\n}\n*/\n\n\n\n",
  "sourcePath": "/Users/brad/Documents/CS480/project/mrmp/contracts/MRMP.sol",
  "compiler": {
    "name": "solc",
    "version": "0.4.24+commit.e67f0147.Emscripten.clang"
  },
  "schemaVersion": "2.0.1",
  "updatedAt": "2018-12-05T20:17:13.063Z"
}