{
  "contractName": "RMPcontract",
  "abi": [
    {
      "inputs": [],
      "payable": false,
      "stateMutability": "nonpayable",
      "type": "constructor"
    },
    {
      "payable": true,
      "stateMutability": "payable",
      "type": "fallback"
    },
    {
      "anonymous": false,
      "inputs": [
        {
          "indexed": false,
          "name": "tokenId",
          "type": "uint256"
        },
        {
          "indexed": false,
          "name": "amount",
          "type": "uint256"
        }
      ],
      "name": "RoyaltyPayment",
      "type": "event"
    },
    {
      "constant": false,
      "inputs": [
        {
          "name": "_rmpId",
          "type": "uint256"
        }
      ],
      "name": "setRMP_ID",
      "outputs": [],
      "payable": false,
      "stateMutability": "nonpayable",
      "type": "function"
    },
    {
      "constant": false,
      "inputs": [
        {
          "name": "mrmpAdd",
          "type": "address"
        }
      ],
      "name": "callMRMPContract",
      "outputs": [],
      "payable": false,
      "stateMutability": "nonpayable",
      "type": "function"
    }
  ],
  "bytecode": "0x608060405234801561001057600080fd5b5061017f806100206000396000f30060806040526004361061004c576000357c0100000000000000000000000000000000000000000000000000000000900463ffffffff1680630f1252c614610095578063d3273333146100c2575b60003490507f284e3e671efeae309596e07a9a625e828b817ad516b3fb4ff24f7aa7b46cc1ad60005482604051808381526020018281526020019250505060405180910390a150005b3480156100a157600080fd5b506100c060048036038101908080359060200190929190505050610105565b005b3480156100ce57600080fd5b50610103600480360381019080803573ffffffffffffffffffffffffffffffffffffffff16906020019092919050505061010f565b005b8060008190555050565b80600160006101000a81548173ffffffffffffffffffffffffffffffffffffffff021916908373ffffffffffffffffffffffffffffffffffffffff160217905550505600a165627a7a72305820cd1221f3f372f99c2908be5eaec7ae45619b1b76879001ad4cf2ea86b07aa6940029",
  "source": "pragma solidity ^0.4.24;\n\n//import './MRMP.sol';\n\n/**\n *\n * Official Royalty Distribution Contract\n * Music Royalty Management Platform\n *\n */\n\n\n\ncontract RMPcontract {\n    uint256 rmpId;\n    MRMP _mrmp;\n\n    // trying to access values from MRMP.sol using methods from class\n\n    event RoyaltyPayment(uint256 tokenId, uint amount);\n\n\n    constructor() public {\n    }\n\n    function setRMP_ID(uint256 _rmpId) public {\n        rmpId = _rmpId;\n    }\n\n    function callMRMPContract(address mrmpAdd) public {\n        _mrmp = MRMP(mrmpAdd);\n    }\n\n    function() public payable {\n        uint amountReceived = msg.value;\n        //uint num = _mrmp.getNumStakeholders(rmpId);\n\n        //Unfinished\n        //Not compiling apparently because this contract is imported by MRMP.sol ?\n        //Need to distribute funds to stakeholders\n        //Can this be done without floating points?\n\n        emit RoyaltyPayment(rmpId, amountReceived);\n    }\n}\n\ncontract MRMP {   // Full header is: contract MRMP is RMP721\n\n    function getNumStakeholders(uint256 _rmpId) public view returns (uint);\n\n    function getStakeholder(uint256 _rmpId, uint index) public view returns(\n        string _name,\n        string _title,\n        uint _percentage,\n        address _addr\n    );\n\n}\n\n\n\n",
  "sourcePath": "/Users/brad/Documents/CS480/project/mrmp/contracts/RMPcontract02.sol",
  "compiler": {
    "name": "solc",
    "version": "0.4.24+commit.e67f0147.Emscripten.clang"
  },
  "schemaVersion": "2.0.1",
  "updatedAt": "2018-12-05T03:55:25.292Z"
}